{
  "_format": "hh-sol-artifact-1",
  "contractName": "Auragi",
  "sourceName": "contracts/Auragi.sol",
  "abi": [
    {
      "inputs": [],
      "stateMutability": "nonpayable",
      "type": "constructor"
    },
    {
      "anonymous": false,
      "inputs": [
        {
          "indexed": true,
          "internalType": "address",
          "name": "owner",
          "type": "address"
        },
        {
          "indexed": true,
          "internalType": "address",
          "name": "spender",
          "type": "address"
        },
        {
          "indexed": false,
          "internalType": "uint256",
          "name": "value",
          "type": "uint256"
        }
      ],
      "name": "Approval",
      "type": "event"
    },
    {
      "anonymous": false,
      "inputs": [
        {
          "indexed": true,
          "internalType": "address",
          "name": "from",
          "type": "address"
        },
        {
          "indexed": true,
          "internalType": "address",
          "name": "to",
          "type": "address"
        },
        {
          "indexed": false,
          "internalType": "uint256",
          "name": "value",
          "type": "uint256"
        }
      ],
      "name": "Transfer",
      "type": "event"
    },
    {
      "inputs": [
        {
          "internalType": "address",
          "name": "",
          "type": "address"
        },
        {
          "internalType": "address",
          "name": "",
          "type": "address"
        }
      ],
      "name": "allowance",
      "outputs": [
        {
          "internalType": "uint256",
          "name": "",
          "type": "uint256"
        }
      ],
      "stateMutability": "view",
      "type": "function"
    },
    {
      "inputs": [
        {
          "internalType": "address",
          "name": "_spender",
          "type": "address"
        },
        {
          "internalType": "uint256",
          "name": "_value",
          "type": "uint256"
        }
      ],
      "name": "approve",
      "outputs": [
        {
          "internalType": "bool",
          "name": "",
          "type": "bool"
        }
      ],
      "stateMutability": "nonpayable",
      "type": "function"
    },
    {
      "inputs": [
        {
          "internalType": "address",
          "name": "",
          "type": "address"
        }
      ],
      "name": "balanceOf",
      "outputs": [
        {
          "internalType": "uint256",
          "name": "",
          "type": "uint256"
        }
      ],
      "stateMutability": "view",
      "type": "function"
    },
    {
      "inputs": [
        {
          "internalType": "address",
          "name": "account",
          "type": "address"
        },
        {
          "internalType": "uint256",
          "name": "amount",
          "type": "uint256"
        }
      ],
      "name": "claim",
      "outputs": [
        {
          "internalType": "bool",
          "name": "",
          "type": "bool"
        }
      ],
      "stateMutability": "nonpayable",
      "type": "function"
    },
    {
      "inputs": [],
      "name": "decimals",
      "outputs": [
        {
          "internalType": "uint8",
          "name": "",
          "type": "uint8"
        }
      ],
      "stateMutability": "view",
      "type": "function"
    },
    {
      "inputs": [],
      "name": "faucet",
      "outputs": [
        {
          "internalType": "bool",
          "name": "",
          "type": "bool"
        }
      ],
      "stateMutability": "nonpayable",
      "type": "function"
    },
    {
      "inputs": [],
      "name": "initialMinted",
      "outputs": [
        {
          "internalType": "bool",
          "name": "",
          "type": "bool"
        }
      ],
      "stateMutability": "view",
      "type": "function"
    },
    {
      "inputs": [],
      "name": "merkleClaim",
      "outputs": [
        {
          "internalType": "address",
          "name": "",
          "type": "address"
        }
      ],
      "stateMutability": "view",
      "type": "function"
    },
    {
      "inputs": [
        {
          "internalType": "address",
          "name": "account",
          "type": "address"
        },
        {
          "internalType": "uint256",
          "name": "amount",
          "type": "uint256"
        }
      ],
      "name": "mint",
      "outputs": [
        {
          "internalType": "bool",
          "name": "",
          "type": "bool"
        }
      ],
      "stateMutability": "nonpayable",
      "type": "function"
    },
    {
      "inputs": [],
      "name": "minter",
      "outputs": [
        {
          "internalType": "address",
          "name": "",
          "type": "address"
        }
      ],
      "stateMutability": "view",
      "type": "function"
    },
    {
      "inputs": [],
      "name": "name",
      "outputs": [
        {
          "internalType": "string",
          "name": "",
          "type": "string"
        }
      ],
      "stateMutability": "view",
      "type": "function"
    },
    {
      "inputs": [
        {
          "internalType": "address",
          "name": "_merkleClaim",
          "type": "address"
        }
      ],
      "name": "setMerkleClaim",
      "outputs": [],
      "stateMutability": "nonpayable",
      "type": "function"
    },
    {
      "inputs": [
        {
          "internalType": "address",
          "name": "_minter",
          "type": "address"
        }
      ],
      "name": "setMinter",
      "outputs": [],
      "stateMutability": "nonpayable",
      "type": "function"
    },
    {
      "inputs": [],
      "name": "symbol",
      "outputs": [
        {
          "internalType": "string",
          "name": "",
          "type": "string"
        }
      ],
      "stateMutability": "view",
      "type": "function"
    },
    {
      "inputs": [],
      "name": "totalSupply",
      "outputs": [
        {
          "internalType": "uint256",
          "name": "",
          "type": "uint256"
        }
      ],
      "stateMutability": "view",
      "type": "function"
    },
    {
      "inputs": [
        {
          "internalType": "address",
          "name": "_to",
          "type": "address"
        },
        {
          "internalType": "uint256",
          "name": "_value",
          "type": "uint256"
        }
      ],
      "name": "transfer",
      "outputs": [
        {
          "internalType": "bool",
          "name": "",
          "type": "bool"
        }
      ],
      "stateMutability": "nonpayable",
      "type": "function"
    },
    {
      "inputs": [
        {
          "internalType": "address",
          "name": "_from",
          "type": "address"
        },
        {
          "internalType": "address",
          "name": "_to",
          "type": "address"
        },
        {
          "internalType": "uint256",
          "name": "_value",
          "type": "uint256"
        }
      ],
      "name": "transferFrom",
      "outputs": [
        {
          "internalType": "bool",
          "name": "",
          "type": "bool"
        }
      ],
      "stateMutability": "nonpayable",
      "type": "function"
    }
  ],
  "bytecode": "0x60806040526000805534801561001457600080fd5b5060038054610100600160a81b03191633610100021790556107568061003b6000396000f3fe608060405234801561001057600080fd5b506004361061010b5760003560e01c806395d89b41116100a2578063dd62ed3e11610071578063dd62ed3e1461026a578063de5f72fd14610295578063e752c44a1461029d578063ec676a25146102b0578063fca3b5aa146102c557600080fd5b806395d89b4114610215578063a9059cbb14610237578063aad3ec961461024a578063ca1c4de91461025d57600080fd5b806323b872dd116100de57806323b872dd146101b5578063313ce567146101c857806340c10f19146101e257806370a08231146101f557600080fd5b806306fdde0314610110578063075461721461014b578063095ea7b31461017b57806318160ddd1461019e575b600080fd5b6101356040518060400160405280600681526020016541757261676960d01b81525081565b60405161014291906105b6565b60405180910390f35b6003546101639061010090046001600160a01b031681565b6040516001600160a01b039091168152602001610142565b61018e610189366004610627565b6102d8565b6040519015158152602001610142565b6101a760005481565b604051908152602001610142565b61018e6101c3366004610651565b610344565b6101d0601281565b60405160ff9091168152602001610142565b61018e6101f0366004610627565b6103be565b6101a761020336600461068d565b60016020526000908152604090205481565b6101356040518060400160405280600381526020016241474960e81b81525081565b61018e610245366004610627565b6103f1565b61018e610258366004610627565b610405565b60035461018e9060ff1681565b6101a76102783660046106a8565b600260209081526000928352604080842090915290825290205481565b61018e61041f565b600454610163906001600160a01b031681565b6102c36102be36600461068d565b610438565b005b6102c36102d336600461068d565b610476565b3360008181526002602090815260408083206001600160a01b038716808552925280832085905551919290917f8c5be1e5ebec7d5bd14f71427d1e84f3dd0314c0f7b2291e5b200ac8c7c3b925906103339086815260200190565b60405180910390a350600192915050565b6001600160a01b038316600090815260026020908152604080832033845290915281205460001981146103aa576001600160a01b0385166000908152600260209081526040808320338452909152812080548592906103a49084906106f1565b90915550505b6103b58585856104ba565b95945050505050565b60035460009061010090046001600160a01b031633146103dd57600080fd5b6103e78383610551565b5060019392505050565b60006103fe3384846104ba565b9392505050565b6004546000906001600160a01b031633146103dd57600080fd5b60006104343368056bc75e2d63100000610551565b5090565b60035461010090046001600160a01b0316331461045457600080fd5b600480546001600160a01b0319166001600160a01b0392909216919091179055565b60035461010090046001600160a01b0316331461049257600080fd5b600380546001600160a01b0390921661010002610100600160a81b0319909216919091179055565b6001600160a01b0383166000908152600160205260408120805483919083906104e49084906106f1565b90915550506001600160a01b03808416600081815260016020526040908190208054860190555190918616907fddf252ad1be2c89b69c2b068fc378daa952ba7f163c4a11628f55a4df523b3ef9061053f9086815260200190565b60405180910390a35060019392505050565b6000816000808282546105649190610708565b90915550506001600160a01b0383166000818152600160209081526040808320805487019055518581527fddf252ad1be2c89b69c2b068fc378daa952ba7f163c4a11628f55a4df523b3ef9101610333565b600060208083528351808285015260005b818110156105e3578581018301518582016040015282016105c7565b818111156105f5576000604083870101525b50601f01601f1916929092016040019392505050565b80356001600160a01b038116811461062257600080fd5b919050565b6000806040838503121561063a57600080fd5b6106438361060b565b946020939093013593505050565b60008060006060848603121561066657600080fd5b61066f8461060b565b925061067d6020850161060b565b9150604084013590509250925092565b60006020828403121561069f57600080fd5b6103fe8261060b565b600080604083850312156106bb57600080fd5b6106c48361060b565b91506106d26020840161060b565b90509250929050565b634e487b7160e01b600052601160045260246000fd5b600082821015610703576107036106db565b500390565b6000821982111561071b5761071b6106db565b50019056fea264697066735822122097128c22033eaeeaa33392e2f12afd842e24f769b6a3f608cef10d4a7fdcea8864736f6c634300080d0033",
  "linkReferences": {},
  "deployedLinkReferences": {}
}